{
  "_format": "hh-sol-artifact-1",
  "contractName": "RockPaperScissors",
  "sourceName": "contracts/RockPaperScissors.sol",
  "abi": [
    {
      "anonymous": false,
      "inputs": [
        {
          "components": [
            {
              "internalType": "address",
              "name": "playerOne",
              "type": "address"
            },
            {
              "internalType": "address",
              "name": "playerTwo",
              "type": "address"
            },
            {
              "internalType": "enum RockPaperScissors.GameOutcome",
              "name": "outcome",
              "type": "uint8"
            }
          ],
          "indexed": false,
          "internalType": "struct RockPaperScissors.GameResult",
          "name": "result",
          "type": "tuple"
        }
      ],
      "name": "GameOver",
      "type": "event"
    },
    {
      "anonymous": false,
      "inputs": [
        {
          "indexed": true,
          "internalType": "address",
          "name": "player",
          "type": "address"
        }
      ],
      "name": "PlayerJoined",
      "type": "event"
    },
    {
      "anonymous": false,
      "inputs": [
        {
          "indexed": true,
          "internalType": "address",
          "name": "player",
          "type": "address"
        }
      ],
      "name": "PlayerMadeMove",
      "type": "event"
    },
    {
      "inputs": [],
      "name": "REVEAL_TIMEOUT",
      "outputs": [
        {
          "internalType": "uint256",
          "name": "",
          "type": "uint256"
        }
      ],
      "stateMutability": "view",
      "type": "function"
    },
    {
      "inputs": [],
      "name": "firstReveal",
      "outputs": [
        {
          "internalType": "uint256",
          "name": "",
          "type": "uint256"
        }
      ],
      "stateMutability": "view",
      "type": "function"
    },
    {
      "inputs": [
        {
          "internalType": "uint256",
          "name": "",
          "type": "uint256"
        }
      ],
      "name": "gamesPlayedResults",
      "outputs": [
        {
          "internalType": "address",
          "name": "playerOne",
          "type": "address"
        },
        {
          "internalType": "address",
          "name": "playerTwo",
          "type": "address"
        },
        {
          "internalType": "enum RockPaperScissors.GameOutcome",
          "name": "outcome",
          "type": "uint8"
        }
      ],
      "stateMutability": "view",
      "type": "function"
    },
    {
      "inputs": [
        {
          "internalType": "uint256",
          "name": "index",
          "type": "uint256"
        }
      ],
      "name": "getHistoricalGameAtIndex",
      "outputs": [
        {
          "components": [
            {
              "internalType": "address",
              "name": "playerOne",
              "type": "address"
            },
            {
              "internalType": "address",
              "name": "playerTwo",
              "type": "address"
            },
            {
              "internalType": "enum RockPaperScissors.GameOutcome",
              "name": "outcome",
              "type": "uint8"
            }
          ],
          "internalType": "struct RockPaperScissors.GameResult",
          "name": "",
          "type": "tuple"
        }
      ],
      "stateMutability": "view",
      "type": "function"
    },
    {
      "inputs": [],
      "name": "hashedPlayerOneMove",
      "outputs": [
        {
          "internalType": "bytes32",
          "name": "",
          "type": "bytes32"
        }
      ],
      "stateMutability": "view",
      "type": "function"
    },
    {
      "inputs": [],
      "name": "hashedPlayerTwoMove",
      "outputs": [
        {
          "internalType": "bytes32",
          "name": "",
          "type": "bytes32"
        }
      ],
      "stateMutability": "view",
      "type": "function"
    },
    {
      "inputs": [],
      "name": "initialBet",
      "outputs": [
        {
          "internalType": "uint256",
          "name": "",
          "type": "uint256"
        }
      ],
      "stateMutability": "view",
      "type": "function"
    },
    {
      "inputs": [],
      "name": "join",
      "outputs": [
        {
          "internalType": "uint256",
          "name": "",
          "type": "uint256"
        }
      ],
      "stateMutability": "payable",
      "type": "function"
    },
    {
      "inputs": [
        {
          "internalType": "bytes32",
          "name": "hashedMove",
          "type": "bytes32"
        }
      ],
      "name": "playGame",
      "outputs": [
        {
          "internalType": "bool",
          "name": "",
          "type": "bool"
        }
      ],
      "stateMutability": "nonpayable",
      "type": "function"
    },
    {
      "inputs": [
        {
          "internalType": "address",
          "name": "",
          "type": "address"
        }
      ],
      "name": "playerBalances",
      "outputs": [
        {
          "internalType": "uint256",
          "name": "",
          "type": "uint256"
        }
      ],
      "stateMutability": "view",
      "type": "function"
    },
    {
      "inputs": [],
      "name": "playerOne",
      "outputs": [
        {
          "internalType": "address payable",
          "name": "",
          "type": "address"
        }
      ],
      "stateMutability": "view",
      "type": "function"
    },
    {
      "inputs": [],
      "name": "playerOneMove",
      "outputs": [
        {
          "internalType": "uint256",
          "name": "",
          "type": "uint256"
        }
      ],
      "stateMutability": "view",
      "type": "function"
    },
    {
      "inputs": [],
      "name": "playerTwo",
      "outputs": [
        {
          "internalType": "address payable",
          "name": "",
          "type": "address"
        }
      ],
      "stateMutability": "view",
      "type": "function"
    },
    {
      "inputs": [],
      "name": "playerTwoMove",
      "outputs": [
        {
          "internalType": "uint256",
          "name": "",
          "type": "uint256"
        }
      ],
      "stateMutability": "view",
      "type": "function"
    },
    {
      "inputs": [
        {
          "internalType": "uint256",
          "name": "move",
          "type": "uint256"
        },
        {
          "internalType": "bytes32",
          "name": "password",
          "type": "bytes32"
        }
      ],
      "name": "revealPlayerChoice",
      "outputs": [],
      "stateMutability": "nonpayable",
      "type": "function"
    }
  ],
  "bytecode": "0x608060405234801561001057600080fd5b5060016000819055506124bd806100286000396000f3fe6080604052600436106100e85760003560e01c8063a96c921d1161008a578063bcffcf4111610059578063bcffcf41146102ef578063de9835001461031a578063efd92f1c14610345578063ff89ac3a14610370576100e8565b8063a96c921d1461023c578063ace4e65414610267578063b3d49c3314610292578063b688a363146102d1576100e8565b80634357e4e8116100c65780634357e4e81461016e5780637b38314c146101ab57806386246e05146101e857806386d9d4ef14610211576100e8565b80630a9f85dd146100ed5780631d73c64c146101185780633d6ae3a714610143575b600080fd5b3480156100f957600080fd5b506101026103ad565b60405161010f9190611bd1565b60405180910390f35b34801561012457600080fd5b5061012d6103d3565b60405161013a9190611c05565b60405180910390f35b34801561014f57600080fd5b506101586103d9565b6040516101659190611c05565b60405180910390f35b34801561017a57600080fd5b5061019560048036038101906101909190611c51565b6103df565b6040516101a29190611d58565b60405180910390f35b3480156101b757600080fd5b506101d260048036038101906101cd9190611d9f565b610549565b6040516101df9190611c05565b60405180910390f35b3480156101f457600080fd5b5061020f600480360381019061020a9190611e02565b610561565b005b34801561021d57600080fd5b50610226610a54565b6040516102339190611c05565b60405180910390f35b34801561024857600080fd5b50610251610a5a565b60405161025e9190611c05565b60405180910390f35b34801561027357600080fd5b5061027c610a60565b6040516102899190611c05565b60405180910390f35b34801561029e57600080fd5b506102b960048036038101906102b49190611c51565b610a66565b6040516102c893929190611e60565b60405180910390f35b6102d9610aed565b6040516102e69190611c05565b60405180910390f35b3480156102fb57600080fd5b50610304610ecc565b6040516103119190611bd1565b60405180910390f35b34801561032657600080fd5b5061032f610ef2565b60405161033c9190611ea6565b60405180910390f35b34801561035157600080fd5b5061035a610ef8565b6040516103679190611ea6565b60405180910390f35b34801561037c57600080fd5b5061039760048036038101906103929190611ec1565b610efe565b6040516103a49190611f09565b60405180910390f35b600360009054906101000a900473ffffffffffffffffffffffffffffffffffffffff1681565b60085481565b61025881565b6103e7611b31565b600980549050821061042e576040517f08c379a000000000000000000000000000000000000000000000000000000000815260040161042590611f81565b60405180910390fd5b6009828154811061044257610441611fa1565b5b90600052602060002090600202016040518060600160405290816000820160009054906101000a900473ffffffffffffffffffffffffffffffffffffffff1673ffffffffffffffffffffffffffffffffffffffff1673ffffffffffffffffffffffffffffffffffffffff1681526020016001820160009054906101000a900473ffffffffffffffffffffffffffffffffffffffff1673ffffffffffffffffffffffffffffffffffffffff1673ffffffffffffffffffffffffffffffffffffffff1681526020016001820160149054906101000a900460ff16600281111561052c5761052b611c9f565b5b600281111561053e5761053d611c9f565b5b815250509050919050565b600a6020528060005260406000206000915090505481565b6000801b6004541415801561057b57506000801b60055414155b6105ba576040517f08c379a00000000000000000000000000000000000000000000000000000000081526004016105b19061201c565b60405180910390fd5b6000600154141580156105db57506102586001546105d8919061206b565b42115b80156106c657506000600654141580156105f757506000600754145b80156106505750600260009054906101000a900473ffffffffffffffffffffffffffffffffffffffff1673ffffffffffffffffffffffffffffffffffffffff163373ffffffffffffffffffffffffffffffffffffffff16145b806106c5575060006007541415801561066b57506000600654145b80156106c45750600360009054906101000a900473ffffffffffffffffffffffffffffffffffffffff1673ffffffffffffffffffffffffffffffffffffffff163373ffffffffffffffffffffffffffffffffffffffff16145b5b5b15610910576000600a6000600260009054906101000a900473ffffffffffffffffffffffffffffffffffffffff1673ffffffffffffffffffffffffffffffffffffffff1673ffffffffffffffffffffffffffffffffffffffff16815260200190815260200160002054905080600a6000600260009054906101000a900473ffffffffffffffffffffffffffffffffffffffff1673ffffffffffffffffffffffffffffffffffffffff1673ffffffffffffffffffffffffffffffffffffffff16815260200190815260200160002060008282546107a2919061209f565b925050819055506000600a6000600360009054906101000a900473ffffffffffffffffffffffffffffffffffffffff1673ffffffffffffffffffffffffffffffffffffffff1673ffffffffffffffffffffffffffffffffffffffff16815260200190815260200160002054905080600a6000600360009054906101000a900473ffffffffffffffffffffffffffffffffffffffff1673ffffffffffffffffffffffffffffffffffffffff1673ffffffffffffffffffffffffffffffffffffffff1681526020019081526020016000206000828254610880919061209f565b9250508190555060008282610895919061206b565b90503373ffffffffffffffffffffffffffffffffffffffff16816040516108bb90612104565b60006040518083038185875af1925050503d80600081146108f8576040519150601f19603f3d011682016040523d82523d6000602084013e6108fd565b606091505b505050610908611292565b505050610a50565b6000828260405160200161092592919061215b565b604051602081830303815290604052805190602001209050600260009054906101000a900473ffffffffffffffffffffffffffffffffffffffff1673ffffffffffffffffffffffffffffffffffffffff163373ffffffffffffffffffffffffffffffffffffffff1614801561099b575060045481145b156109ac5782600681905550610a18565b600360009054906101000a900473ffffffffffffffffffffffffffffffffffffffff1673ffffffffffffffffffffffffffffffffffffffff163373ffffffffffffffffffffffffffffffffffffffff16148015610a0a575060055481145b15610a1757826007819055505b5b600060015403610a2a57426001819055505b600060065414158015610a405750600060075414155b15610a4e57610a4d611340565b5b505b5050565b60015481565b60065481565b60075481565b60098181548110610a7657600080fd5b90600052602060002090600202016000915090508060000160009054906101000a900473ffffffffffffffffffffffffffffffffffffffff16908060010160009054906101000a900473ffffffffffffffffffffffffffffffffffffffff16908060010160149054906101000a900460ff16905083565b6000806008541480610b0157506008543410155b610b40576040517f08c379a0000000000000000000000000000000000000000000000000000000008152600401610b379061221f565b60405180910390fd5b600260009054906101000a900473ffffffffffffffffffffffffffffffffffffffff1673ffffffffffffffffffffffffffffffffffffffff163373ffffffffffffffffffffffffffffffffffffffff1614158015610bec5750600360009054906101000a900473ffffffffffffffffffffffffffffffffffffffff1673ffffffffffffffffffffffffffffffffffffffff163373ffffffffffffffffffffffffffffffffffffffff1614155b610c2b576040517f08c379a0000000000000000000000000000000000000000000000000000000008152600401610c22906122b1565b60405180910390fd5b600073ffffffffffffffffffffffffffffffffffffffff16600260009054906101000a900473ffffffffffffffffffffffffffffffffffffffff1673ffffffffffffffffffffffffffffffffffffffff1603610d7b5733600260006101000a81548173ffffffffffffffffffffffffffffffffffffffff021916908373ffffffffffffffffffffffffffffffffffffffff16021790555034600a60003373ffffffffffffffffffffffffffffffffffffffff1673ffffffffffffffffffffffffffffffffffffffff1681526020019081526020016000208190555034600881905550600260009054906101000a900473ffffffffffffffffffffffffffffffffffffffff1673ffffffffffffffffffffffffffffffffffffffff167f31e760aa525306aba638a784082a013b6a1cc0a9a1789f3f22281c0453b10b1f60405160405180910390a260019050610ec9565b600073ffffffffffffffffffffffffffffffffffffffff16600360009054906101000a900473ffffffffffffffffffffffffffffffffffffffff1673ffffffffffffffffffffffffffffffffffffffff1603610ec45733600360006101000a81548173ffffffffffffffffffffffffffffffffffffffff021916908373ffffffffffffffffffffffffffffffffffffffff16021790555034600a60003373ffffffffffffffffffffffffffffffffffffffff1673ffffffffffffffffffffffffffffffffffffffff16815260200190815260200160002081905550600360009054906101000a900473ffffffffffffffffffffffffffffffffffffffff1673ffffffffffffffffffffffffffffffffffffffff167f31e760aa525306aba638a784082a013b6a1cc0a9a1789f3f22281c0453b10b1f60405160405180910390a260029050610ec9565b600090505b90565b600260009054906101000a900473ffffffffffffffffffffffffffffffffffffffff1681565b60045481565b60055481565b60008073ffffffffffffffffffffffffffffffffffffffff16600260009054906101000a900473ffffffffffffffffffffffffffffffffffffffff1673ffffffffffffffffffffffffffffffffffffffff1614158015610fad5750600073ffffffffffffffffffffffffffffffffffffffff16600360009054906101000a900473ffffffffffffffffffffffffffffffffffffffff1673ffffffffffffffffffffffffffffffffffffffff1614155b610fec576040517f08c379a0000000000000000000000000000000000000000000000000000000008152600401610fe390612343565b60405180910390fd5b600260009054906101000a900473ffffffffffffffffffffffffffffffffffffffff1673ffffffffffffffffffffffffffffffffffffffff163373ffffffffffffffffffffffffffffffffffffffff1614806110955750600360009054906101000a900473ffffffffffffffffffffffffffffffffffffffff1673ffffffffffffffffffffffffffffffffffffffff163373ffffffffffffffffffffffffffffffffffffffff16145b6110d4576040517f08c379a00000000000000000000000000000000000000000000000000000000081526004016110cb906123d5565b60405180910390fd5b600260009054906101000a900473ffffffffffffffffffffffffffffffffffffffff1673ffffffffffffffffffffffffffffffffffffffff163373ffffffffffffffffffffffffffffffffffffffff1614801561113357506000600454145b156111a95781600481905550600260009054906101000a900473ffffffffffffffffffffffffffffffffffffffff1673ffffffffffffffffffffffffffffffffffffffff167f8e2312221f2f880fe2886ccd3e3073cd0caa74cd066e1c64ceca06f474d58e7760405160405180910390a2611288565b600360009054906101000a900473ffffffffffffffffffffffffffffffffffffffff1673ffffffffffffffffffffffffffffffffffffffff163373ffffffffffffffffffffffffffffffffffffffff1614801561120857506000600554145b1561127e5781600581905550600360009054906101000a900473ffffffffffffffffffffffffffffffffffffffff1673ffffffffffffffffffffffffffffffffffffffff167f8e2312221f2f880fe2886ccd3e3073cd0caa74cd066e1c64ceca06f474d58e7760405160405180910390a2611287565b6000905061128d565b5b600190505b919050565b6000600260006101000a81548173ffffffffffffffffffffffffffffffffffffffff021916908373ffffffffffffffffffffffffffffffffffffffff1602179055506000600360006101000a81548173ffffffffffffffffffffffffffffffffffffffff021916908373ffffffffffffffffffffffffffffffffffffffff16021790555060006006819055506000600781905550600060048190555060006005819055506000600181905550565b6000600654141580156113565750600060075414155b611395576040517f08c379a000000000000000000000000000000000000000000000000000000000815260040161138c90612467565b60405180910390fd5b6000806000905060075460065403611680576000600a6000600260009054906101000a900473ffffffffffffffffffffffffffffffffffffffff1673ffffffffffffffffffffffffffffffffffffffff1673ffffffffffffffffffffffffffffffffffffffff16815260200190815260200160002054905080600a6000600260009054906101000a900473ffffffffffffffffffffffffffffffffffffffff1673ffffffffffffffffffffffffffffffffffffffff1673ffffffffffffffffffffffffffffffffffffffff168152602001908152602001600020600082825461147e919061209f565b92505081905550600260009054906101000a900473ffffffffffffffffffffffffffffffffffffffff1673ffffffffffffffffffffffffffffffffffffffff16816040516114cb90612104565b60006040518083038185875af1925050503d8060008114611508576040519150601f19603f3d011682016040523d82523d6000602084013e61150d565b606091505b5050506000600a6000600360009054906101000a900473ffffffffffffffffffffffffffffffffffffffff1673ffffffffffffffffffffffffffffffffffffffff1673ffffffffffffffffffffffffffffffffffffffff16815260200190815260200160002054905080600a6000600360009054906101000a900473ffffffffffffffffffffffffffffffffffffffff1673ffffffffffffffffffffffffffffffffffffffff1673ffffffffffffffffffffffffffffffffffffffff16815260200190815260200160002060008282546115e7919061209f565b92505081905550600360009054906101000a900473ffffffffffffffffffffffffffffffffffffffff1673ffffffffffffffffffffffffffffffffffffffff168160405161163490612104565b60006040518083038185875af1925050503d8060008114611671576040519150601f19603f3d011682016040523d82523d6000602084013e611676565b606091505b5050505050611728565b600160065414801561169457506002600754145b806116af575060026006541480156116ae57506003600754145b5b806116ca575060036006541480156116c957506001600754145b5b156116fd57600360009054906101000a900473ffffffffffffffffffffffffffffffffffffffff16915060029050611727565b600260009054906101000a900473ffffffffffffffffffffffffffffffffffffffff169150600190505b5b60006040518060600160405280600260009054906101000a900473ffffffffffffffffffffffffffffffffffffffff1673ffffffffffffffffffffffffffffffffffffffff168152602001600360009054906101000a900473ffffffffffffffffffffffffffffffffffffffff1673ffffffffffffffffffffffffffffffffffffffff1681526020018360028111156117c4576117c3611c9f565b5b8152509050600981908060018154018082558091505060019003906000526020600020906002020160009091909190915060008201518160000160006101000a81548173ffffffffffffffffffffffffffffffffffffffff021916908373ffffffffffffffffffffffffffffffffffffffff16021790555060208201518160010160006101000a81548173ffffffffffffffffffffffffffffffffffffffff021916908373ffffffffffffffffffffffffffffffffffffffff16021790555060408201518160010160146101000a81548160ff021916908360028111156118ae576118ad611c9f565b5b021790555050506000600a6000600360009054906101000a900473ffffffffffffffffffffffffffffffffffffffff1673ffffffffffffffffffffffffffffffffffffffff1673ffffffffffffffffffffffffffffffffffffffff16815260200190815260200160002054905080600a6000600360009054906101000a900473ffffffffffffffffffffffffffffffffffffffff1673ffffffffffffffffffffffffffffffffffffffff1673ffffffffffffffffffffffffffffffffffffffff168152602001908152602001600020600082825461198c919061209f565b925050819055506000600a6000600260009054906101000a900473ffffffffffffffffffffffffffffffffffffffff1673ffffffffffffffffffffffffffffffffffffffff1673ffffffffffffffffffffffffffffffffffffffff16815260200190815260200160002054905080600a6000600260009054906101000a900473ffffffffffffffffffffffffffffffffffffffff1673ffffffffffffffffffffffffffffffffffffffff1673ffffffffffffffffffffffffffffffffffffffff1681526020019081526020016000206000828254611a6a919061209f565b92505081905550611a79611292565b60008183611a87919061206b565b90508573ffffffffffffffffffffffffffffffffffffffff1681604051611aad90612104565b60006040518083038185875af1925050503d8060008114611aea576040519150601f19603f3d011682016040523d82523d6000602084013e611aef565b606091505b5050507fb3b29f6a4689aed6977771ca5091781986d3cb72de6aea0e1bffc564f8ba586684604051611b219190611d58565b60405180910390a1505050505050565b6040518060600160405280600073ffffffffffffffffffffffffffffffffffffffff168152602001600073ffffffffffffffffffffffffffffffffffffffff16815260200160006002811115611b8a57611b89611c9f565b5b81525090565b600073ffffffffffffffffffffffffffffffffffffffff82169050919050565b6000611bbb82611b90565b9050919050565b611bcb81611bb0565b82525050565b6000602082019050611be66000830184611bc2565b92915050565b6000819050919050565b611bff81611bec565b82525050565b6000602082019050611c1a6000830184611bf6565b92915050565b600080fd5b611c2e81611bec565b8114611c3957600080fd5b50565b600081359050611c4b81611c25565b92915050565b600060208284031215611c6757611c66611c20565b5b6000611c7584828501611c3c565b91505092915050565b6000611c8982611b90565b9050919050565b611c9981611c7e565b82525050565b7f4e487b7100000000000000000000000000000000000000000000000000000000600052602160045260246000fd5b60038110611cdf57611cde611c9f565b5b50565b6000819050611cf082611cce565b919050565b6000611d0082611ce2565b9050919050565b611d1081611cf5565b82525050565b606082016000820151611d2c6000850182611c90565b506020820151611d3f6020850182611c90565b506040820151611d526040850182611d07565b50505050565b6000606082019050611d6d6000830184611d16565b92915050565b611d7c81611c7e565b8114611d8757600080fd5b50565b600081359050611d9981611d73565b92915050565b600060208284031215611db557611db4611c20565b5b6000611dc384828501611d8a565b91505092915050565b6000819050919050565b611ddf81611dcc565b8114611dea57600080fd5b50565b600081359050611dfc81611dd6565b92915050565b60008060408385031215611e1957611e18611c20565b5b6000611e2785828601611c3c565b9250506020611e3885828601611ded565b9150509250929050565b611e4b81611c7e565b82525050565b611e5a81611cf5565b82525050565b6000606082019050611e756000830186611e42565b611e826020830185611e42565b611e8f6040830184611e51565b949350505050565b611ea081611dcc565b82525050565b6000602082019050611ebb6000830184611e97565b92915050565b600060208284031215611ed757611ed6611c20565b5b6000611ee584828501611ded565b91505092915050565b60008115159050919050565b611f0381611eee565b82525050565b6000602082019050611f1e6000830184611efa565b92915050565b600082825260208201905092915050565b7f506c6561736520656e74657220612076616c696420696e646578000000000000600082015250565b6000611f6b601a83611f24565b9150611f7682611f35565b602082019050919050565b60006020820190508181036000830152611f9a81611f5e565b9050919050565b7f4e487b7100000000000000000000000000000000000000000000000000000000600052603260045260246000fd5b7f5468652067616d65206973207374696c6c2072756e6e696e6721000000000000600082015250565b6000612006601a83611f24565b915061201182611fd0565b602082019050919050565b6000602082019050818103600083015261203581611ff9565b9050919050565b7f4e487b7100000000000000000000000000000000000000000000000000000000600052601160045260246000fd5b600061207682611bec565b915061208183611bec565b92508282019050808211156120995761209861203c565b5b92915050565b60006120aa82611bec565b91506120b583611bec565b92508282039050818111156120cd576120cc61203c565b5b92915050565b600081905092915050565b50565b60006120ee6000836120d3565b91506120f9826120de565b600082019050919050565b600061210f826120e1565b9150819050919050565b6000819050919050565b61213461212f82611bec565b612119565b82525050565b6000819050919050565b61215561215082611dcc565b61213a565b82525050565b60006121678285612123565b6020820191506121778284612144565b6020820191508190509392505050565b7f596f75722062657420616d6f756e74206e6565647320746f206265206772656160008201527f746572207468616e206f7220657175616c20746f2074686520696e697469616c60208201527f4265740000000000000000000000000000000000000000000000000000000000604082015250565b6000612209604383611f24565b915061221482612187565b606082019050919050565b60006020820190508181036000830152612238816121fc565b9050919050565b7f596f7527766520616c7265616479206a6f696e6564206173206120706c61796560008201527f7200000000000000000000000000000000000000000000000000000000000000602082015250565b600061229b602183611f24565b91506122a68261223f565b604082019050919050565b600060208201905081810360008301526122ca8161228e565b9050919050565b7f47616d65206e65656473206d6f726520706c617965727320746f206a6f696e2060008201527f6669727374000000000000000000000000000000000000000000000000000000602082015250565b600061232d602583611f24565b9150612338826122d1565b604082019050919050565b6000602082019050818103600083015261235c81612320565b9050919050565b7f596f7520646964206e6f74206a6f696e207468652067616d652061732061207060008201527f6c61796572000000000000000000000000000000000000000000000000000000602082015250565b60006123bf602583611f24565b91506123ca82612363565b604082019050919050565b600060208201905081810360008301526123ee816123b2565b9050919050565b7f4e6f7420616c6c20706c617965727320686176652072657665616c656420746860008201527f6569722063686f69636520796574000000000000000000000000000000000000602082015250565b6000612451602e83611f24565b915061245c826123f5565b604082019050919050565b6000602082019050818103600083015261248081612444565b905091905056fea2646970667358221220f7768e6ad098b807f0312bee479d650309c628d54be23657efd1565950b45f1064736f6c63430008110033",
  "linkReferences": {},
  "deployedLinkReferences": {}
}