{
  "_format": "hh-sol-artifact-1",
  "contractName": "RockPaperScissors",
  "sourceName": "contracts/RockPaperScissors.sol",
  "abi": [
    {
      "anonymous": false,
      "inputs": [
        {
          "components": [
            {
              "internalType": "address",
              "name": "playerOne",
              "type": "address"
            },
            {
              "internalType": "address",
              "name": "playerTwo",
              "type": "address"
            },
            {
              "internalType": "enum RockPaperScissors.GameOutcome",
              "name": "outcome",
              "type": "uint8"
            }
          ],
          "indexed": false,
          "internalType": "struct RockPaperScissors.GameResult",
          "name": "result",
          "type": "tuple"
        }
      ],
      "name": "GameOver",
      "type": "event"
    },
    {
      "anonymous": false,
      "inputs": [
        {
          "indexed": true,
          "internalType": "address",
          "name": "player",
          "type": "address"
        }
      ],
      "name": "PlayerJoined",
      "type": "event"
    },
    {
      "anonymous": false,
      "inputs": [
        {
          "indexed": true,
          "internalType": "address",
          "name": "player",
          "type": "address"
        }
      ],
      "name": "PlayerMadeMove",
      "type": "event"
    },
    {
      "inputs": [
        {
          "internalType": "uint256",
          "name": "",
          "type": "uint256"
        }
      ],
      "name": "gamesPlayedResults",
      "outputs": [
        {
          "internalType": "address",
          "name": "playerOne",
          "type": "address"
        },
        {
          "internalType": "address",
          "name": "playerTwo",
          "type": "address"
        },
        {
          "internalType": "enum RockPaperScissors.GameOutcome",
          "name": "outcome",
          "type": "uint8"
        }
      ],
      "stateMutability": "view",
      "type": "function"
    },
    {
      "inputs": [
        {
          "internalType": "uint256",
          "name": "index",
          "type": "uint256"
        }
      ],
      "name": "getHistoricalGameAtIndex",
      "outputs": [
        {
          "components": [
            {
              "internalType": "address",
              "name": "playerOne",
              "type": "address"
            },
            {
              "internalType": "address",
              "name": "playerTwo",
              "type": "address"
            },
            {
              "internalType": "enum RockPaperScissors.GameOutcome",
              "name": "outcome",
              "type": "uint8"
            }
          ],
          "internalType": "struct RockPaperScissors.GameResult",
          "name": "",
          "type": "tuple"
        }
      ],
      "stateMutability": "view",
      "type": "function"
    },
    {
      "inputs": [],
      "name": "hashedPlayerOneMove",
      "outputs": [
        {
          "internalType": "bytes32",
          "name": "",
          "type": "bytes32"
        }
      ],
      "stateMutability": "view",
      "type": "function"
    },
    {
      "inputs": [],
      "name": "hashedPlayerTwoMove",
      "outputs": [
        {
          "internalType": "bytes32",
          "name": "",
          "type": "bytes32"
        }
      ],
      "stateMutability": "view",
      "type": "function"
    },
    {
      "inputs": [],
      "name": "initialBet",
      "outputs": [
        {
          "internalType": "uint256",
          "name": "",
          "type": "uint256"
        }
      ],
      "stateMutability": "view",
      "type": "function"
    },
    {
      "inputs": [],
      "name": "join",
      "outputs": [
        {
          "internalType": "uint256",
          "name": "",
          "type": "uint256"
        }
      ],
      "stateMutability": "payable",
      "type": "function"
    },
    {
      "inputs": [
        {
          "internalType": "bytes32",
          "name": "hashedMove",
          "type": "bytes32"
        }
      ],
      "name": "playGame",
      "outputs": [
        {
          "internalType": "bool",
          "name": "",
          "type": "bool"
        }
      ],
      "stateMutability": "nonpayable",
      "type": "function"
    },
    {
      "inputs": [
        {
          "internalType": "address",
          "name": "",
          "type": "address"
        }
      ],
      "name": "playerBalances",
      "outputs": [
        {
          "internalType": "uint256",
          "name": "",
          "type": "uint256"
        }
      ],
      "stateMutability": "view",
      "type": "function"
    },
    {
      "inputs": [],
      "name": "playerOne",
      "outputs": [
        {
          "internalType": "address payable",
          "name": "",
          "type": "address"
        }
      ],
      "stateMutability": "view",
      "type": "function"
    },
    {
      "inputs": [],
      "name": "playerOneMove",
      "outputs": [
        {
          "internalType": "uint256",
          "name": "",
          "type": "uint256"
        }
      ],
      "stateMutability": "view",
      "type": "function"
    },
    {
      "inputs": [],
      "name": "playerTwo",
      "outputs": [
        {
          "internalType": "address payable",
          "name": "",
          "type": "address"
        }
      ],
      "stateMutability": "view",
      "type": "function"
    },
    {
      "inputs": [],
      "name": "playerTwoMove",
      "outputs": [
        {
          "internalType": "uint256",
          "name": "",
          "type": "uint256"
        }
      ],
      "stateMutability": "view",
      "type": "function"
    },
    {
      "inputs": [
        {
          "internalType": "uint256",
          "name": "move",
          "type": "uint256"
        },
        {
          "internalType": "bytes32",
          "name": "password",
          "type": "bytes32"
        }
      ],
      "name": "revealPlayerChoice",
      "outputs": [
        {
          "internalType": "uint256",
          "name": "",
          "type": "uint256"
        }
      ],
      "stateMutability": "nonpayable",
      "type": "function"
    }
  ],
  "bytecode": "0x608060405234801561001057600080fd5b5060016000819055506120dc806100286000396000f3fe6080604052600436106100c25760003560e01c8063ace4e6541161007f578063bcffcf4111610059578063bcffcf4114610287578063de983500146102b2578063efd92f1c146102dd578063ff89ac3a14610308576100c2565b8063ace4e654146101ff578063b3d49c331461022a578063b688a36314610269576100c2565b80630a9f85dd146100c75780631d73c64c146100f25780634357e4e81461011d5780637b38314c1461015a57806386246e0514610197578063a96c921d146101d4575b600080fd5b3480156100d357600080fd5b506100dc610345565b6040516100e991906117f0565b60405180910390f35b3480156100fe57600080fd5b5061010761036b565b6040516101149190611824565b60405180910390f35b34801561012957600080fd5b50610144600480360381019061013f9190611870565b610371565b6040516101519190611977565b60405180910390f35b34801561016657600080fd5b50610181600480360381019061017c91906119be565b6104db565b60405161018e9190611824565b60405180910390f35b3480156101a357600080fd5b506101be60048036038101906101b99190611a21565b6104f3565b6040516101cb9190611824565b60405180910390f35b3480156101e057600080fd5b506101e9610681565b6040516101f69190611824565b60405180910390f35b34801561020b57600080fd5b50610214610687565b6040516102219190611824565b60405180910390f35b34801561023657600080fd5b50610251600480360381019061024c9190611870565b61068d565b60405161026093929190611a7f565b60405180910390f35b610271610714565b60405161027e9190611824565b60405180910390f35b34801561029357600080fd5b5061029c610af3565b6040516102a991906117f0565b60405180910390f35b3480156102be57600080fd5b506102c7610b19565b6040516102d49190611ac5565b60405180910390f35b3480156102e957600080fd5b506102f2610b1f565b6040516102ff9190611ac5565b60405180910390f35b34801561031457600080fd5b5061032f600480360381019061032a9190611ae0565b610b25565b60405161033c9190611b28565b60405180910390f35b600260009054906101000a900473ffffffffffffffffffffffffffffffffffffffff1681565b60075481565b610379611750565b60088054905082106103c0576040517f08c379a00000000000000000000000000000000000000000000000000000000081526004016103b790611ba0565b60405180910390fd5b600882815481106103d4576103d3611bc0565b5b90600052602060002090600202016040518060600160405290816000820160009054906101000a900473ffffffffffffffffffffffffffffffffffffffff1673ffffffffffffffffffffffffffffffffffffffff1673ffffffffffffffffffffffffffffffffffffffff1681526020016001820160009054906101000a900473ffffffffffffffffffffffffffffffffffffffff1673ffffffffffffffffffffffffffffffffffffffff1673ffffffffffffffffffffffffffffffffffffffff1681526020016001820160149054906101000a900460ff1660028111156104be576104bd6118be565b5b60028111156104d0576104cf6118be565b5b815250509050919050565b60096020528060005260406000206000915090505481565b60008060001b6003541415801561050f57506000801b60045414155b61054e576040517f08c379a000000000000000000000000000000000000000000000000000000000815260040161054590611c3b565b60405180910390fd5b60008383604051602001610563929190611c9d565b604051602081830303815290604052805190602001209050600160009054906101000a900473ffffffffffffffffffffffffffffffffffffffff1673ffffffffffffffffffffffffffffffffffffffff163373ffffffffffffffffffffffffffffffffffffffff161480156105d9575060035481145b156105ea5783600581905550610656565b600260009054906101000a900473ffffffffffffffffffffffffffffffffffffffff1673ffffffffffffffffffffffffffffffffffffffff163373ffffffffffffffffffffffffffffffffffffffff16148015610648575060045481145b1561065557836006819055505b5b60006005541415801561066c5750600060065414155b1561067a57610679610eb9565b5b5092915050565b60055481565b60065481565b6008818154811061069d57600080fd5b90600052602060002090600202016000915090508060000160009054906101000a900473ffffffffffffffffffffffffffffffffffffffff16908060010160009054906101000a900473ffffffffffffffffffffffffffffffffffffffff16908060010160149054906101000a900460ff16905083565b600080600754148061072857506007543410155b610767576040517f08c379a000000000000000000000000000000000000000000000000000000000815260040161075e90611d61565b60405180910390fd5b600160009054906101000a900473ffffffffffffffffffffffffffffffffffffffff1673ffffffffffffffffffffffffffffffffffffffff163373ffffffffffffffffffffffffffffffffffffffff16141580156108135750600260009054906101000a900473ffffffffffffffffffffffffffffffffffffffff1673ffffffffffffffffffffffffffffffffffffffff163373ffffffffffffffffffffffffffffffffffffffff1614155b610852576040517f08c379a000000000000000000000000000000000000000000000000000000000815260040161084990611df3565b60405180910390fd5b600073ffffffffffffffffffffffffffffffffffffffff16600160009054906101000a900473ffffffffffffffffffffffffffffffffffffffff1673ffffffffffffffffffffffffffffffffffffffff16036109a25733600160006101000a81548173ffffffffffffffffffffffffffffffffffffffff021916908373ffffffffffffffffffffffffffffffffffffffff16021790555034600960003373ffffffffffffffffffffffffffffffffffffffff1673ffffffffffffffffffffffffffffffffffffffff1681526020019081526020016000208190555034600781905550600160009054906101000a900473ffffffffffffffffffffffffffffffffffffffff1673ffffffffffffffffffffffffffffffffffffffff167f31e760aa525306aba638a784082a013b6a1cc0a9a1789f3f22281c0453b10b1f60405160405180910390a260019050610af0565b600073ffffffffffffffffffffffffffffffffffffffff16600260009054906101000a900473ffffffffffffffffffffffffffffffffffffffff1673ffffffffffffffffffffffffffffffffffffffff1603610aeb5733600260006101000a81548173ffffffffffffffffffffffffffffffffffffffff021916908373ffffffffffffffffffffffffffffffffffffffff16021790555034600960003373ffffffffffffffffffffffffffffffffffffffff1673ffffffffffffffffffffffffffffffffffffffff16815260200190815260200160002081905550600260009054906101000a900473ffffffffffffffffffffffffffffffffffffffff1673ffffffffffffffffffffffffffffffffffffffff167f31e760aa525306aba638a784082a013b6a1cc0a9a1789f3f22281c0453b10b1f60405160405180910390a260029050610af0565b600090505b90565b600160009054906101000a900473ffffffffffffffffffffffffffffffffffffffff1681565b60035481565b60045481565b60008073ffffffffffffffffffffffffffffffffffffffff16600160009054906101000a900473ffffffffffffffffffffffffffffffffffffffff1673ffffffffffffffffffffffffffffffffffffffff1614158015610bd45750600073ffffffffffffffffffffffffffffffffffffffff16600260009054906101000a900473ffffffffffffffffffffffffffffffffffffffff1673ffffffffffffffffffffffffffffffffffffffff1614155b610c13576040517f08c379a0000000000000000000000000000000000000000000000000000000008152600401610c0a90611e85565b60405180910390fd5b600160009054906101000a900473ffffffffffffffffffffffffffffffffffffffff1673ffffffffffffffffffffffffffffffffffffffff163373ffffffffffffffffffffffffffffffffffffffff161480610cbc5750600260009054906101000a900473ffffffffffffffffffffffffffffffffffffffff1673ffffffffffffffffffffffffffffffffffffffff163373ffffffffffffffffffffffffffffffffffffffff16145b610cfb576040517f08c379a0000000000000000000000000000000000000000000000000000000008152600401610cf290611f17565b60405180910390fd5b600160009054906101000a900473ffffffffffffffffffffffffffffffffffffffff1673ffffffffffffffffffffffffffffffffffffffff163373ffffffffffffffffffffffffffffffffffffffff16148015610d5a57506000600354145b15610dd05781600381905550600160009054906101000a900473ffffffffffffffffffffffffffffffffffffffff1673ffffffffffffffffffffffffffffffffffffffff167f8e2312221f2f880fe2886ccd3e3073cd0caa74cd066e1c64ceca06f474d58e7760405160405180910390a2610eaf565b600260009054906101000a900473ffffffffffffffffffffffffffffffffffffffff1673ffffffffffffffffffffffffffffffffffffffff163373ffffffffffffffffffffffffffffffffffffffff16148015610e2f57506000600454145b15610ea55781600481905550600260009054906101000a900473ffffffffffffffffffffffffffffffffffffffff1673ffffffffffffffffffffffffffffffffffffffff167f8e2312221f2f880fe2886ccd3e3073cd0caa74cd066e1c64ceca06f474d58e7760405160405180910390a2610eae565b60009050610eb4565b5b600190505b919050565b600060055414158015610ecf5750600060065414155b610f0e576040517f08c379a0000000000000000000000000000000000000000000000000000000008152600401610f0590611fa9565b60405180910390fd5b60008060009050600654600554036111f957600060096000600160009054906101000a900473ffffffffffffffffffffffffffffffffffffffff1673ffffffffffffffffffffffffffffffffffffffff1673ffffffffffffffffffffffffffffffffffffffff1681526020019081526020016000205490508060096000600160009054906101000a900473ffffffffffffffffffffffffffffffffffffffff1673ffffffffffffffffffffffffffffffffffffffff1673ffffffffffffffffffffffffffffffffffffffff1681526020019081526020016000206000828254610ff79190611ff8565b92505081905550600160009054906101000a900473ffffffffffffffffffffffffffffffffffffffff1673ffffffffffffffffffffffffffffffffffffffff16816040516110449061205d565b60006040518083038185875af1925050503d8060008114611081576040519150601f19603f3d011682016040523d82523d6000602084013e611086565b606091505b505050600060096000600260009054906101000a900473ffffffffffffffffffffffffffffffffffffffff1673ffffffffffffffffffffffffffffffffffffffff1673ffffffffffffffffffffffffffffffffffffffff1681526020019081526020016000205490508060096000600260009054906101000a900473ffffffffffffffffffffffffffffffffffffffff1673ffffffffffffffffffffffffffffffffffffffff1673ffffffffffffffffffffffffffffffffffffffff16815260200190815260200160002060008282546111609190611ff8565b92505081905550600260009054906101000a900473ffffffffffffffffffffffffffffffffffffffff1673ffffffffffffffffffffffffffffffffffffffff16816040516111ad9061205d565b60006040518083038185875af1925050503d80600081146111ea576040519150601f19603f3d011682016040523d82523d6000602084013e6111ef565b606091505b50505050506112a1565b600160055414801561120d57506002600654145b806112285750600260055414801561122757506003600654145b5b806112435750600360055414801561124257506001600654145b5b1561127657600260009054906101000a900473ffffffffffffffffffffffffffffffffffffffff169150600290506112a0565b600160009054906101000a900473ffffffffffffffffffffffffffffffffffffffff169150600190505b5b60006040518060600160405280600160009054906101000a900473ffffffffffffffffffffffffffffffffffffffff1673ffffffffffffffffffffffffffffffffffffffff168152602001600260009054906101000a900473ffffffffffffffffffffffffffffffffffffffff1673ffffffffffffffffffffffffffffffffffffffff16815260200183600281111561133d5761133c6118be565b5b8152509050600881908060018154018082558091505060019003906000526020600020906002020160009091909190915060008201518160000160006101000a81548173ffffffffffffffffffffffffffffffffffffffff021916908373ffffffffffffffffffffffffffffffffffffffff16021790555060208201518160010160006101000a81548173ffffffffffffffffffffffffffffffffffffffff021916908373ffffffffffffffffffffffffffffffffffffffff16021790555060408201518160010160146101000a81548160ff02191690836002811115611427576114266118be565b5b02179055505050600060096000600260009054906101000a900473ffffffffffffffffffffffffffffffffffffffff1673ffffffffffffffffffffffffffffffffffffffff1673ffffffffffffffffffffffffffffffffffffffff1681526020019081526020016000205490508060096000600260009054906101000a900473ffffffffffffffffffffffffffffffffffffffff1673ffffffffffffffffffffffffffffffffffffffff1673ffffffffffffffffffffffffffffffffffffffff16815260200190815260200160002060008282546115059190611ff8565b92505081905550600060096000600160009054906101000a900473ffffffffffffffffffffffffffffffffffffffff1673ffffffffffffffffffffffffffffffffffffffff1673ffffffffffffffffffffffffffffffffffffffff1681526020019081526020016000205490508060096000600160009054906101000a900473ffffffffffffffffffffffffffffffffffffffff1673ffffffffffffffffffffffffffffffffffffffff1673ffffffffffffffffffffffffffffffffffffffff16815260200190815260200160002060008282546115e39190611ff8565b925050819055506115f26116aa565b600081836116009190612072565b90508573ffffffffffffffffffffffffffffffffffffffff16816040516116269061205d565b60006040518083038185875af1925050503d8060008114611663576040519150601f19603f3d011682016040523d82523d6000602084013e611668565b606091505b5050507fb3b29f6a4689aed6977771ca5091781986d3cb72de6aea0e1bffc564f8ba58668460405161169a9190611977565b60405180910390a1505050505050565b6000600160006101000a81548173ffffffffffffffffffffffffffffffffffffffff021916908373ffffffffffffffffffffffffffffffffffffffff1602179055506000600260006101000a81548173ffffffffffffffffffffffffffffffffffffffff021916908373ffffffffffffffffffffffffffffffffffffffff1602179055506000600581905550600060068190555060006003819055506000600481905550565b6040518060600160405280600073ffffffffffffffffffffffffffffffffffffffff168152602001600073ffffffffffffffffffffffffffffffffffffffff168152602001600060028111156117a9576117a86118be565b5b81525090565b600073ffffffffffffffffffffffffffffffffffffffff82169050919050565b60006117da826117af565b9050919050565b6117ea816117cf565b82525050565b600060208201905061180560008301846117e1565b92915050565b6000819050919050565b61181e8161180b565b82525050565b60006020820190506118396000830184611815565b92915050565b600080fd5b61184d8161180b565b811461185857600080fd5b50565b60008135905061186a81611844565b92915050565b6000602082840312156118865761188561183f565b5b60006118948482850161185b565b91505092915050565b60006118a8826117af565b9050919050565b6118b88161189d565b82525050565b7f4e487b7100000000000000000000000000000000000000000000000000000000600052602160045260246000fd5b600381106118fe576118fd6118be565b5b50565b600081905061190f826118ed565b919050565b600061191f82611901565b9050919050565b61192f81611914565b82525050565b60608201600082015161194b60008501826118af565b50602082015161195e60208501826118af565b5060408201516119716040850182611926565b50505050565b600060608201905061198c6000830184611935565b92915050565b61199b8161189d565b81146119a657600080fd5b50565b6000813590506119b881611992565b92915050565b6000602082840312156119d4576119d361183f565b5b60006119e2848285016119a9565b91505092915050565b6000819050919050565b6119fe816119eb565b8114611a0957600080fd5b50565b600081359050611a1b816119f5565b92915050565b60008060408385031215611a3857611a3761183f565b5b6000611a468582860161185b565b9250506020611a5785828601611a0c565b9150509250929050565b611a6a8161189d565b82525050565b611a7981611914565b82525050565b6000606082019050611a946000830186611a61565b611aa16020830185611a61565b611aae6040830184611a70565b949350505050565b611abf816119eb565b82525050565b6000602082019050611ada6000830184611ab6565b92915050565b600060208284031215611af657611af561183f565b5b6000611b0484828501611a0c565b91505092915050565b60008115159050919050565b611b2281611b0d565b82525050565b6000602082019050611b3d6000830184611b19565b92915050565b600082825260208201905092915050565b7f506c6561736520656e74657220612076616c696420696e646578000000000000600082015250565b6000611b8a601a83611b43565b9150611b9582611b54565b602082019050919050565b60006020820190508181036000830152611bb981611b7d565b9050919050565b7f4e487b7100000000000000000000000000000000000000000000000000000000600052603260045260246000fd5b7f5468652067616d65206973207374696c6c2072756e6e696e6721000000000000600082015250565b6000611c25601a83611b43565b9150611c3082611bef565b602082019050919050565b60006020820190508181036000830152611c5481611c18565b9050919050565b6000819050919050565b611c76611c718261180b565b611c5b565b82525050565b6000819050919050565b611c97611c92826119eb565b611c7c565b82525050565b6000611ca98285611c65565b602082019150611cb98284611c86565b6020820191508190509392505050565b7f596f75722062657420616d6f756e74206e6565647320746f206265206772656160008201527f746572207468616e206f7220657175616c20746f2074686520696e697469616c60208201527f4265740000000000000000000000000000000000000000000000000000000000604082015250565b6000611d4b604383611b43565b9150611d5682611cc9565b606082019050919050565b60006020820190508181036000830152611d7a81611d3e565b9050919050565b7f596f7527766520616c7265616479206a6f696e6564206173206120706c61796560008201527f7200000000000000000000000000000000000000000000000000000000000000602082015250565b6000611ddd602183611b43565b9150611de882611d81565b604082019050919050565b60006020820190508181036000830152611e0c81611dd0565b9050919050565b7f47616d65206e65656473206d6f726520706c617965727320746f206a6f696e2060008201527f6669727374000000000000000000000000000000000000000000000000000000602082015250565b6000611e6f602583611b43565b9150611e7a82611e13565b604082019050919050565b60006020820190508181036000830152611e9e81611e62565b9050919050565b7f596f7520646964206e6f74206a6f696e207468652067616d652061732061207060008201527f6c61796572000000000000000000000000000000000000000000000000000000602082015250565b6000611f01602583611b43565b9150611f0c82611ea5565b604082019050919050565b60006020820190508181036000830152611f3081611ef4565b9050919050565b7f4e6f7420616c6c20706c617965727320686176652072657665616c656420746860008201527f6569722063686f69636520796574000000000000000000000000000000000000602082015250565b6000611f93602e83611b43565b9150611f9e82611f37565b604082019050919050565b60006020820190508181036000830152611fc281611f86565b9050919050565b7f4e487b7100000000000000000000000000000000000000000000000000000000600052601160045260246000fd5b60006120038261180b565b915061200e8361180b565b925082820390508181111561202657612025611fc9565b5b92915050565b600081905092915050565b50565b600061204760008361202c565b915061205282612037565b600082019050919050565b60006120688261203a565b9150819050919050565b600061207d8261180b565b91506120888361180b565b92508282019050808211156120a05761209f611fc9565b5b9291505056fea26469706673582212209c4cacbdef2b1872f9e923dd2177cc1c2a34a1ace1cda647255ff0486993a98064736f6c63430008110033",
  "linkReferences": {},
  "deployedLinkReferences": {}
}