{
  "_format": "hh-sol-artifact-1",
  "contractName": "RockPaperScissors",
  "sourceName": "contracts/RockPaperScissors.sol",
  "abi": [
    {
      "anonymous": false,
      "inputs": [
        {
          "components": [
            {
              "internalType": "address",
              "name": "playerOne",
              "type": "address"
            },
            {
              "internalType": "address",
              "name": "playerTwo",
              "type": "address"
            },
            {
              "internalType": "enum RockPaperScissors.GameOutcome",
              "name": "outcome",
              "type": "uint8"
            }
          ],
          "indexed": false,
          "internalType": "struct RockPaperScissors.GameResult",
          "name": "result",
          "type": "tuple"
        }
      ],
      "name": "GameOver",
      "type": "event"
    },
    {
      "anonymous": false,
      "inputs": [
        {
          "indexed": true,
          "internalType": "address",
          "name": "player",
          "type": "address"
        }
      ],
      "name": "PlayerJoined",
      "type": "event"
    },
    {
      "anonymous": false,
      "inputs": [
        {
          "indexed": true,
          "internalType": "address",
          "name": "player",
          "type": "address"
        }
      ],
      "name": "PlayerMadeMove",
      "type": "event"
    },
    {
      "inputs": [],
      "name": "REVEAL_TIMEOUT",
      "outputs": [
        {
          "internalType": "uint256",
          "name": "",
          "type": "uint256"
        }
      ],
      "stateMutability": "view",
      "type": "function"
    },
    {
      "inputs": [],
      "name": "firstReveal",
      "outputs": [
        {
          "internalType": "uint256",
          "name": "",
          "type": "uint256"
        }
      ],
      "stateMutability": "view",
      "type": "function"
    },
    {
      "inputs": [
        {
          "internalType": "uint256",
          "name": "",
          "type": "uint256"
        }
      ],
      "name": "gamesPlayedResults",
      "outputs": [
        {
          "internalType": "address",
          "name": "playerOne",
          "type": "address"
        },
        {
          "internalType": "address",
          "name": "playerTwo",
          "type": "address"
        },
        {
          "internalType": "enum RockPaperScissors.GameOutcome",
          "name": "outcome",
          "type": "uint8"
        }
      ],
      "stateMutability": "view",
      "type": "function"
    },
    {
      "inputs": [
        {
          "internalType": "uint256",
          "name": "index",
          "type": "uint256"
        }
      ],
      "name": "getHistoricalGameAtIndex",
      "outputs": [
        {
          "components": [
            {
              "internalType": "address",
              "name": "playerOne",
              "type": "address"
            },
            {
              "internalType": "address",
              "name": "playerTwo",
              "type": "address"
            },
            {
              "internalType": "enum RockPaperScissors.GameOutcome",
              "name": "outcome",
              "type": "uint8"
            }
          ],
          "internalType": "struct RockPaperScissors.GameResult",
          "name": "",
          "type": "tuple"
        }
      ],
      "stateMutability": "view",
      "type": "function"
    },
    {
      "inputs": [],
      "name": "hashedPlayerOneMove",
      "outputs": [
        {
          "internalType": "bytes32",
          "name": "",
          "type": "bytes32"
        }
      ],
      "stateMutability": "view",
      "type": "function"
    },
    {
      "inputs": [],
      "name": "hashedPlayerTwoMove",
      "outputs": [
        {
          "internalType": "bytes32",
          "name": "",
          "type": "bytes32"
        }
      ],
      "stateMutability": "view",
      "type": "function"
    },
    {
      "inputs": [],
      "name": "initialBet",
      "outputs": [
        {
          "internalType": "uint256",
          "name": "",
          "type": "uint256"
        }
      ],
      "stateMutability": "view",
      "type": "function"
    },
    {
      "inputs": [],
      "name": "join",
      "outputs": [
        {
          "internalType": "uint256",
          "name": "",
          "type": "uint256"
        }
      ],
      "stateMutability": "payable",
      "type": "function"
    },
    {
      "inputs": [
        {
          "internalType": "bytes32",
          "name": "hashedMove",
          "type": "bytes32"
        }
      ],
      "name": "playGame",
      "outputs": [
        {
          "internalType": "bool",
          "name": "",
          "type": "bool"
        }
      ],
      "stateMutability": "nonpayable",
      "type": "function"
    },
    {
      "inputs": [
        {
          "internalType": "address",
          "name": "",
          "type": "address"
        }
      ],
      "name": "playerBalances",
      "outputs": [
        {
          "internalType": "uint256",
          "name": "",
          "type": "uint256"
        }
      ],
      "stateMutability": "view",
      "type": "function"
    },
    {
      "inputs": [],
      "name": "playerOne",
      "outputs": [
        {
          "internalType": "address payable",
          "name": "",
          "type": "address"
        }
      ],
      "stateMutability": "view",
      "type": "function"
    },
    {
      "inputs": [],
      "name": "playerOneMove",
      "outputs": [
        {
          "internalType": "uint256",
          "name": "",
          "type": "uint256"
        }
      ],
      "stateMutability": "view",
      "type": "function"
    },
    {
      "inputs": [],
      "name": "playerTwo",
      "outputs": [
        {
          "internalType": "address payable",
          "name": "",
          "type": "address"
        }
      ],
      "stateMutability": "view",
      "type": "function"
    },
    {
      "inputs": [],
      "name": "playerTwoMove",
      "outputs": [
        {
          "internalType": "uint256",
          "name": "",
          "type": "uint256"
        }
      ],
      "stateMutability": "view",
      "type": "function"
    },
    {
      "inputs": [
        {
          "internalType": "uint256",
          "name": "move",
          "type": "uint256"
        },
        {
          "internalType": "bytes32",
          "name": "password",
          "type": "bytes32"
        }
      ],
      "name": "revealPlayerChoice",
      "outputs": [
        {
          "internalType": "uint256",
          "name": "",
          "type": "uint256"
        }
      ],
      "stateMutability": "nonpayable",
      "type": "function"
    }
  ],
  "bytecode": "0x608060405234801561001057600080fd5b5060016000819055506124d0806100286000396000f3fe6080604052600436106100e85760003560e01c8063a96c921d1161008a578063bcffcf4111610059578063bcffcf4114610303578063de9835001461032e578063efd92f1c14610359578063ff89ac3a14610384576100e8565b8063a96c921d14610250578063ace4e6541461027b578063b3d49c33146102a6578063b688a363146102e5576100e8565b80634357e4e8116100c65780634357e4e81461016e5780637b38314c146101ab57806386246e05146101e857806386d9d4ef14610225576100e8565b80630a9f85dd146100ed5780631d73c64c146101185780633d6ae3a714610143575b600080fd5b3480156100f957600080fd5b506101026103c1565b60405161010f9190611be4565b60405180910390f35b34801561012457600080fd5b5061012d6103e7565b60405161013a9190611c18565b60405180910390f35b34801561014f57600080fd5b506101586103ed565b6040516101659190611c18565b60405180910390f35b34801561017a57600080fd5b5061019560048036038101906101909190611c64565b6103f3565b6040516101a29190611d6b565b60405180910390f35b3480156101b757600080fd5b506101d260048036038101906101cd9190611db2565b61055d565b6040516101df9190611c18565b60405180910390f35b3480156101f457600080fd5b5061020f600480360381019061020a9190611e15565b610575565b60405161021c9190611c18565b60405180910390f35b34801561023157600080fd5b5061023a610a67565b6040516102479190611c18565b60405180910390f35b34801561025c57600080fd5b50610265610a6d565b6040516102729190611c18565b60405180910390f35b34801561028757600080fd5b50610290610a73565b60405161029d9190611c18565b60405180910390f35b3480156102b257600080fd5b506102cd60048036038101906102c89190611c64565b610a79565b6040516102dc93929190611e73565b60405180910390f35b6102ed610b00565b6040516102fa9190611c18565b60405180910390f35b34801561030f57600080fd5b50610318610edf565b6040516103259190611be4565b60405180910390f35b34801561033a57600080fd5b50610343610f05565b6040516103509190611eb9565b60405180910390f35b34801561036557600080fd5b5061036e610f0b565b60405161037b9190611eb9565b60405180910390f35b34801561039057600080fd5b506103ab60048036038101906103a69190611ed4565b610f11565b6040516103b89190611f1c565b60405180910390f35b600360009054906101000a900473ffffffffffffffffffffffffffffffffffffffff1681565b60085481565b61025881565b6103fb611b44565b6009805490508210610442576040517f08c379a000000000000000000000000000000000000000000000000000000000815260040161043990611f94565b60405180910390fd5b6009828154811061045657610455611fb4565b5b90600052602060002090600202016040518060600160405290816000820160009054906101000a900473ffffffffffffffffffffffffffffffffffffffff1673ffffffffffffffffffffffffffffffffffffffff1673ffffffffffffffffffffffffffffffffffffffff1681526020016001820160009054906101000a900473ffffffffffffffffffffffffffffffffffffffff1673ffffffffffffffffffffffffffffffffffffffff1673ffffffffffffffffffffffffffffffffffffffff1681526020016001820160149054906101000a900460ff1660028111156105405761053f611cb2565b5b600281111561055257610551611cb2565b5b815250509050919050565b600a6020528060005260406000206000915090505481565b60008060001b6004541415801561059157506000801b60055414155b6105d0576040517f08c379a00000000000000000000000000000000000000000000000000000000081526004016105c79061202f565b60405180910390fd5b6000600154141580156105f157506102586001546105ee919061207e565b42115b80156106dc575060006006541415801561060d57506000600754145b80156106665750600260009054906101000a900473ffffffffffffffffffffffffffffffffffffffff1673ffffffffffffffffffffffffffffffffffffffff163373ffffffffffffffffffffffffffffffffffffffff16145b806106db575060006007541415801561068157506000600654145b80156106da5750600360009054906101000a900473ffffffffffffffffffffffffffffffffffffffff1673ffffffffffffffffffffffffffffffffffffffff163373ffffffffffffffffffffffffffffffffffffffff16145b5b5b15610922576000600a6000600260009054906101000a900473ffffffffffffffffffffffffffffffffffffffff1673ffffffffffffffffffffffffffffffffffffffff1673ffffffffffffffffffffffffffffffffffffffff16815260200190815260200160002054905080600a6000600260009054906101000a900473ffffffffffffffffffffffffffffffffffffffff1673ffffffffffffffffffffffffffffffffffffffff1673ffffffffffffffffffffffffffffffffffffffff16815260200190815260200160002060008282546107b891906120b2565b925050819055506000600a6000600360009054906101000a900473ffffffffffffffffffffffffffffffffffffffff1673ffffffffffffffffffffffffffffffffffffffff1673ffffffffffffffffffffffffffffffffffffffff16815260200190815260200160002054905080600a6000600360009054906101000a900473ffffffffffffffffffffffffffffffffffffffff1673ffffffffffffffffffffffffffffffffffffffff1673ffffffffffffffffffffffffffffffffffffffff168152602001908152602001600020600082825461089691906120b2565b92505081905550600082826108ab919061207e565b90503373ffffffffffffffffffffffffffffffffffffffff16816040516108d190612117565b60006040518083038185875af1925050503d806000811461090e576040519150601f19603f3d011682016040523d82523d6000602084013e610913565b606091505b50505061091e6112a5565b5050505b6000838360405160200161093792919061216e565b604051602081830303815290604052805190602001209050600260009054906101000a900473ffffffffffffffffffffffffffffffffffffffff1673ffffffffffffffffffffffffffffffffffffffff163373ffffffffffffffffffffffffffffffffffffffff161480156109ad575060045481145b156109be5783600681905550610a2a565b600360009054906101000a900473ffffffffffffffffffffffffffffffffffffffff1673ffffffffffffffffffffffffffffffffffffffff163373ffffffffffffffffffffffffffffffffffffffff16148015610a1c575060055481145b15610a2957836007819055505b5b600060015403610a3c57426001819055505b600060065414158015610a525750600060075414155b15610a6057610a5f611353565b5b5092915050565b60015481565b60065481565b60075481565b60098181548110610a8957600080fd5b90600052602060002090600202016000915090508060000160009054906101000a900473ffffffffffffffffffffffffffffffffffffffff16908060010160009054906101000a900473ffffffffffffffffffffffffffffffffffffffff16908060010160149054906101000a900460ff16905083565b6000806008541480610b1457506008543410155b610b53576040517f08c379a0000000000000000000000000000000000000000000000000000000008152600401610b4a90612232565b60405180910390fd5b600260009054906101000a900473ffffffffffffffffffffffffffffffffffffffff1673ffffffffffffffffffffffffffffffffffffffff163373ffffffffffffffffffffffffffffffffffffffff1614158015610bff5750600360009054906101000a900473ffffffffffffffffffffffffffffffffffffffff1673ffffffffffffffffffffffffffffffffffffffff163373ffffffffffffffffffffffffffffffffffffffff1614155b610c3e576040517f08c379a0000000000000000000000000000000000000000000000000000000008152600401610c35906122c4565b60405180910390fd5b600073ffffffffffffffffffffffffffffffffffffffff16600260009054906101000a900473ffffffffffffffffffffffffffffffffffffffff1673ffffffffffffffffffffffffffffffffffffffff1603610d8e5733600260006101000a81548173ffffffffffffffffffffffffffffffffffffffff021916908373ffffffffffffffffffffffffffffffffffffffff16021790555034600a60003373ffffffffffffffffffffffffffffffffffffffff1673ffffffffffffffffffffffffffffffffffffffff1681526020019081526020016000208190555034600881905550600260009054906101000a900473ffffffffffffffffffffffffffffffffffffffff1673ffffffffffffffffffffffffffffffffffffffff167f31e760aa525306aba638a784082a013b6a1cc0a9a1789f3f22281c0453b10b1f60405160405180910390a260019050610edc565b600073ffffffffffffffffffffffffffffffffffffffff16600360009054906101000a900473ffffffffffffffffffffffffffffffffffffffff1673ffffffffffffffffffffffffffffffffffffffff1603610ed75733600360006101000a81548173ffffffffffffffffffffffffffffffffffffffff021916908373ffffffffffffffffffffffffffffffffffffffff16021790555034600a60003373ffffffffffffffffffffffffffffffffffffffff1673ffffffffffffffffffffffffffffffffffffffff16815260200190815260200160002081905550600360009054906101000a900473ffffffffffffffffffffffffffffffffffffffff1673ffffffffffffffffffffffffffffffffffffffff167f31e760aa525306aba638a784082a013b6a1cc0a9a1789f3f22281c0453b10b1f60405160405180910390a260029050610edc565b600090505b90565b600260009054906101000a900473ffffffffffffffffffffffffffffffffffffffff1681565b60045481565b60055481565b60008073ffffffffffffffffffffffffffffffffffffffff16600260009054906101000a900473ffffffffffffffffffffffffffffffffffffffff1673ffffffffffffffffffffffffffffffffffffffff1614158015610fc05750600073ffffffffffffffffffffffffffffffffffffffff16600360009054906101000a900473ffffffffffffffffffffffffffffffffffffffff1673ffffffffffffffffffffffffffffffffffffffff1614155b610fff576040517f08c379a0000000000000000000000000000000000000000000000000000000008152600401610ff690612356565b60405180910390fd5b600260009054906101000a900473ffffffffffffffffffffffffffffffffffffffff1673ffffffffffffffffffffffffffffffffffffffff163373ffffffffffffffffffffffffffffffffffffffff1614806110a85750600360009054906101000a900473ffffffffffffffffffffffffffffffffffffffff1673ffffffffffffffffffffffffffffffffffffffff163373ffffffffffffffffffffffffffffffffffffffff16145b6110e7576040517f08c379a00000000000000000000000000000000000000000000000000000000081526004016110de906123e8565b60405180910390fd5b600260009054906101000a900473ffffffffffffffffffffffffffffffffffffffff1673ffffffffffffffffffffffffffffffffffffffff163373ffffffffffffffffffffffffffffffffffffffff1614801561114657506000600454145b156111bc5781600481905550600260009054906101000a900473ffffffffffffffffffffffffffffffffffffffff1673ffffffffffffffffffffffffffffffffffffffff167f8e2312221f2f880fe2886ccd3e3073cd0caa74cd066e1c64ceca06f474d58e7760405160405180910390a261129b565b600360009054906101000a900473ffffffffffffffffffffffffffffffffffffffff1673ffffffffffffffffffffffffffffffffffffffff163373ffffffffffffffffffffffffffffffffffffffff1614801561121b57506000600554145b156112915781600581905550600360009054906101000a900473ffffffffffffffffffffffffffffffffffffffff1673ffffffffffffffffffffffffffffffffffffffff167f8e2312221f2f880fe2886ccd3e3073cd0caa74cd066e1c64ceca06f474d58e7760405160405180910390a261129a565b600090506112a0565b5b600190505b919050565b6000600260006101000a81548173ffffffffffffffffffffffffffffffffffffffff021916908373ffffffffffffffffffffffffffffffffffffffff1602179055506000600360006101000a81548173ffffffffffffffffffffffffffffffffffffffff021916908373ffffffffffffffffffffffffffffffffffffffff16021790555060006006819055506000600781905550600060048190555060006005819055506000600181905550565b6000600654141580156113695750600060075414155b6113a8576040517f08c379a000000000000000000000000000000000000000000000000000000000815260040161139f9061247a565b60405180910390fd5b6000806000905060075460065403611693576000600a6000600260009054906101000a900473ffffffffffffffffffffffffffffffffffffffff1673ffffffffffffffffffffffffffffffffffffffff1673ffffffffffffffffffffffffffffffffffffffff16815260200190815260200160002054905080600a6000600260009054906101000a900473ffffffffffffffffffffffffffffffffffffffff1673ffffffffffffffffffffffffffffffffffffffff1673ffffffffffffffffffffffffffffffffffffffff168152602001908152602001600020600082825461149191906120b2565b92505081905550600260009054906101000a900473ffffffffffffffffffffffffffffffffffffffff1673ffffffffffffffffffffffffffffffffffffffff16816040516114de90612117565b60006040518083038185875af1925050503d806000811461151b576040519150601f19603f3d011682016040523d82523d6000602084013e611520565b606091505b5050506000600a6000600360009054906101000a900473ffffffffffffffffffffffffffffffffffffffff1673ffffffffffffffffffffffffffffffffffffffff1673ffffffffffffffffffffffffffffffffffffffff16815260200190815260200160002054905080600a6000600360009054906101000a900473ffffffffffffffffffffffffffffffffffffffff1673ffffffffffffffffffffffffffffffffffffffff1673ffffffffffffffffffffffffffffffffffffffff16815260200190815260200160002060008282546115fa91906120b2565b92505081905550600360009054906101000a900473ffffffffffffffffffffffffffffffffffffffff1673ffffffffffffffffffffffffffffffffffffffff168160405161164790612117565b60006040518083038185875af1925050503d8060008114611684576040519150601f19603f3d011682016040523d82523d6000602084013e611689565b606091505b505050505061173b565b60016006541480156116a757506002600754145b806116c2575060026006541480156116c157506003600754145b5b806116dd575060036006541480156116dc57506001600754145b5b1561171057600360009054906101000a900473ffffffffffffffffffffffffffffffffffffffff1691506002905061173a565b600260009054906101000a900473ffffffffffffffffffffffffffffffffffffffff169150600190505b5b60006040518060600160405280600260009054906101000a900473ffffffffffffffffffffffffffffffffffffffff1673ffffffffffffffffffffffffffffffffffffffff168152602001600360009054906101000a900473ffffffffffffffffffffffffffffffffffffffff1673ffffffffffffffffffffffffffffffffffffffff1681526020018360028111156117d7576117d6611cb2565b5b8152509050600981908060018154018082558091505060019003906000526020600020906002020160009091909190915060008201518160000160006101000a81548173ffffffffffffffffffffffffffffffffffffffff021916908373ffffffffffffffffffffffffffffffffffffffff16021790555060208201518160010160006101000a81548173ffffffffffffffffffffffffffffffffffffffff021916908373ffffffffffffffffffffffffffffffffffffffff16021790555060408201518160010160146101000a81548160ff021916908360028111156118c1576118c0611cb2565b5b021790555050506000600a6000600360009054906101000a900473ffffffffffffffffffffffffffffffffffffffff1673ffffffffffffffffffffffffffffffffffffffff1673ffffffffffffffffffffffffffffffffffffffff16815260200190815260200160002054905080600a6000600360009054906101000a900473ffffffffffffffffffffffffffffffffffffffff1673ffffffffffffffffffffffffffffffffffffffff1673ffffffffffffffffffffffffffffffffffffffff168152602001908152602001600020600082825461199f91906120b2565b925050819055506000600a6000600260009054906101000a900473ffffffffffffffffffffffffffffffffffffffff1673ffffffffffffffffffffffffffffffffffffffff1673ffffffffffffffffffffffffffffffffffffffff16815260200190815260200160002054905080600a6000600260009054906101000a900473ffffffffffffffffffffffffffffffffffffffff1673ffffffffffffffffffffffffffffffffffffffff1673ffffffffffffffffffffffffffffffffffffffff1681526020019081526020016000206000828254611a7d91906120b2565b92505081905550611a8c6112a5565b60008183611a9a919061207e565b90508573ffffffffffffffffffffffffffffffffffffffff1681604051611ac090612117565b60006040518083038185875af1925050503d8060008114611afd576040519150601f19603f3d011682016040523d82523d6000602084013e611b02565b606091505b5050507fb3b29f6a4689aed6977771ca5091781986d3cb72de6aea0e1bffc564f8ba586684604051611b349190611d6b565b60405180910390a1505050505050565b6040518060600160405280600073ffffffffffffffffffffffffffffffffffffffff168152602001600073ffffffffffffffffffffffffffffffffffffffff16815260200160006002811115611b9d57611b9c611cb2565b5b81525090565b600073ffffffffffffffffffffffffffffffffffffffff82169050919050565b6000611bce82611ba3565b9050919050565b611bde81611bc3565b82525050565b6000602082019050611bf96000830184611bd5565b92915050565b6000819050919050565b611c1281611bff565b82525050565b6000602082019050611c2d6000830184611c09565b92915050565b600080fd5b611c4181611bff565b8114611c4c57600080fd5b50565b600081359050611c5e81611c38565b92915050565b600060208284031215611c7a57611c79611c33565b5b6000611c8884828501611c4f565b91505092915050565b6000611c9c82611ba3565b9050919050565b611cac81611c91565b82525050565b7f4e487b7100000000000000000000000000000000000000000000000000000000600052602160045260246000fd5b60038110611cf257611cf1611cb2565b5b50565b6000819050611d0382611ce1565b919050565b6000611d1382611cf5565b9050919050565b611d2381611d08565b82525050565b606082016000820151611d3f6000850182611ca3565b506020820151611d526020850182611ca3565b506040820151611d656040850182611d1a565b50505050565b6000606082019050611d806000830184611d29565b92915050565b611d8f81611c91565b8114611d9a57600080fd5b50565b600081359050611dac81611d86565b92915050565b600060208284031215611dc857611dc7611c33565b5b6000611dd684828501611d9d565b91505092915050565b6000819050919050565b611df281611ddf565b8114611dfd57600080fd5b50565b600081359050611e0f81611de9565b92915050565b60008060408385031215611e2c57611e2b611c33565b5b6000611e3a85828601611c4f565b9250506020611e4b85828601611e00565b9150509250929050565b611e5e81611c91565b82525050565b611e6d81611d08565b82525050565b6000606082019050611e886000830186611e55565b611e956020830185611e55565b611ea26040830184611e64565b949350505050565b611eb381611ddf565b82525050565b6000602082019050611ece6000830184611eaa565b92915050565b600060208284031215611eea57611ee9611c33565b5b6000611ef884828501611e00565b91505092915050565b60008115159050919050565b611f1681611f01565b82525050565b6000602082019050611f316000830184611f0d565b92915050565b600082825260208201905092915050565b7f506c6561736520656e74657220612076616c696420696e646578000000000000600082015250565b6000611f7e601a83611f37565b9150611f8982611f48565b602082019050919050565b60006020820190508181036000830152611fad81611f71565b9050919050565b7f4e487b7100000000000000000000000000000000000000000000000000000000600052603260045260246000fd5b7f5468652067616d65206973207374696c6c2072756e6e696e6721000000000000600082015250565b6000612019601a83611f37565b915061202482611fe3565b602082019050919050565b600060208201905081810360008301526120488161200c565b9050919050565b7f4e487b7100000000000000000000000000000000000000000000000000000000600052601160045260246000fd5b600061208982611bff565b915061209483611bff565b92508282019050808211156120ac576120ab61204f565b5b92915050565b60006120bd82611bff565b91506120c883611bff565b92508282039050818111156120e0576120df61204f565b5b92915050565b600081905092915050565b50565b60006121016000836120e6565b915061210c826120f1565b600082019050919050565b6000612122826120f4565b9150819050919050565b6000819050919050565b61214761214282611bff565b61212c565b82525050565b6000819050919050565b61216861216382611ddf565b61214d565b82525050565b600061217a8285612136565b60208201915061218a8284612157565b6020820191508190509392505050565b7f596f75722062657420616d6f756e74206e6565647320746f206265206772656160008201527f746572207468616e206f7220657175616c20746f2074686520696e697469616c60208201527f4265740000000000000000000000000000000000000000000000000000000000604082015250565b600061221c604383611f37565b91506122278261219a565b606082019050919050565b6000602082019050818103600083015261224b8161220f565b9050919050565b7f596f7527766520616c7265616479206a6f696e6564206173206120706c61796560008201527f7200000000000000000000000000000000000000000000000000000000000000602082015250565b60006122ae602183611f37565b91506122b982612252565b604082019050919050565b600060208201905081810360008301526122dd816122a1565b9050919050565b7f47616d65206e65656473206d6f726520706c617965727320746f206a6f696e2060008201527f6669727374000000000000000000000000000000000000000000000000000000602082015250565b6000612340602583611f37565b915061234b826122e4565b604082019050919050565b6000602082019050818103600083015261236f81612333565b9050919050565b7f596f7520646964206e6f74206a6f696e207468652067616d652061732061207060008201527f6c61796572000000000000000000000000000000000000000000000000000000602082015250565b60006123d2602583611f37565b91506123dd82612376565b604082019050919050565b60006020820190508181036000830152612401816123c5565b9050919050565b7f4e6f7420616c6c20706c617965727320686176652072657665616c656420746860008201527f6569722063686f69636520796574000000000000000000000000000000000000602082015250565b6000612464602e83611f37565b915061246f82612408565b604082019050919050565b6000602082019050818103600083015261249381612457565b905091905056fea26469706673582212203d552dc5a7301f61cab292bd4d8023a69c2c43196bce47fe9e78769a2422b31964736f6c63430008110033",
  "linkReferences": {},
  "deployedLinkReferences": {}
}