{
  "_format": "hh-sol-artifact-1",
  "contractName": "GetHashedValue",
  "sourceName": "contracts/GetHashedValue.sol",
  "abi": [
    {
      "inputs": [
        {
          "internalType": "uint256",
          "name": "move",
          "type": "uint256"
        },
        {
          "internalType": "bytes32",
          "name": "salt",
          "type": "bytes32"
        }
      ],
      "name": "getHashedValue",
      "outputs": [
        {
          "internalType": "bytes32",
          "name": "",
          "type": "bytes32"
        }
      ],
      "stateMutability": "pure",
      "type": "function"
    }
  ],
  "bytecode": "0x608060405234801561001057600080fd5b50610212806100206000396000f3fe608060405234801561001057600080fd5b506004361061002b5760003560e01c8063c7058f3e14610030575b600080fd5b61004a60048036038101906100459190610104565b610060565b6040516100579190610153565b60405180910390f35b600082826040516020016100759291906101b0565b60405160208183030381529060405280519060200120905092915050565b600080fd5b6000819050919050565b6100ab81610098565b81146100b657600080fd5b50565b6000813590506100c8816100a2565b92915050565b6000819050919050565b6100e1816100ce565b81146100ec57600080fd5b50565b6000813590506100fe816100d8565b92915050565b6000806040838503121561011b5761011a610093565b5b6000610129858286016100b9565b925050602061013a858286016100ef565b9150509250929050565b61014d816100ce565b82525050565b60006020820190506101686000830184610144565b92915050565b6000819050919050565b61018961018482610098565b61016e565b82525050565b6000819050919050565b6101aa6101a5826100ce565b61018f565b82525050565b60006101bc8285610178565b6020820191506101cc8284610199565b602082019150819050939250505056fea26469706673582212200215b57b038b8cfc0bb251656f521654bf4634281cbe0d68e8eacf07fd0d582d64736f6c63430008110033",
  "linkReferences": {},
  "deployedLinkReferences": {}
}